{
  "contractName": "EthSwap",
  "abi": [
    {
      "inputs": [
        {
          "internalType": "contract Token",
          "name": "_token",
          "type": "address"
        }
      ],
      "stateMutability": "nonpayable",
      "type": "constructor"
    },
    {
      "anonymous": false,
      "inputs": [
        {
          "indexed": false,
          "internalType": "address",
          "name": "account",
          "type": "address"
        },
        {
          "indexed": false,
          "internalType": "address",
          "name": "token",
          "type": "address"
        },
        {
          "indexed": false,
          "internalType": "uint256",
          "name": "amount",
          "type": "uint256"
        },
        {
          "indexed": false,
          "internalType": "uint256",
          "name": "rate",
          "type": "uint256"
        }
      ],
      "name": "BuyToken",
      "type": "event"
    },
    {
      "anonymous": false,
      "inputs": [
        {
          "indexed": false,
          "internalType": "address",
          "name": "account",
          "type": "address"
        },
        {
          "indexed": false,
          "internalType": "address",
          "name": "token",
          "type": "address"
        },
        {
          "indexed": false,
          "internalType": "uint256",
          "name": "amount",
          "type": "uint256"
        },
        {
          "indexed": false,
          "internalType": "uint256",
          "name": "rate",
          "type": "uint256"
        }
      ],
      "name": "SellToken",
      "type": "event"
    },
    {
      "stateMutability": "payable",
      "type": "fallback",
      "payable": true
    },
    {
      "inputs": [],
      "name": "name",
      "outputs": [
        {
          "internalType": "string",
          "name": "",
          "type": "string"
        }
      ],
      "stateMutability": "view",
      "type": "function",
      "constant": true
    },
    {
      "inputs": [],
      "name": "owner",
      "outputs": [
        {
          "internalType": "address",
          "name": "",
          "type": "address"
        }
      ],
      "stateMutability": "view",
      "type": "function",
      "constant": true
    },
    {
      "inputs": [],
      "name": "rate",
      "outputs": [
        {
          "internalType": "uint256",
          "name": "",
          "type": "uint256"
        }
      ],
      "stateMutability": "view",
      "type": "function",
      "constant": true
    },
    {
      "inputs": [],
      "name": "token",
      "outputs": [
        {
          "internalType": "contract Token",
          "name": "",
          "type": "address"
        }
      ],
      "stateMutability": "view",
      "type": "function",
      "constant": true
    },
    {
      "stateMutability": "payable",
      "type": "receive",
      "payable": true
    },
    {
      "inputs": [],
      "name": "buyTokens",
      "outputs": [],
      "stateMutability": "payable",
      "type": "function",
      "payable": true
    },
    {
      "inputs": [
        {
          "internalType": "uint256",
          "name": "_amount",
          "type": "uint256"
        }
      ],
      "name": "sellTokens",
      "outputs": [],
      "stateMutability": "nonpayable",
      "type": "function"
    }
  ],
  "bytecode": "0x60806040526040518060400160405280601881526020017f4574685377617020496e7374616e742045786368616e67650000000000000000815250600090805190602001906200005192919062000116565b503480156200005f57600080fd5b506040516200107a3803806200107a833981810160405281019062000085919062000244565b33600160006101000a81548173ffffffffffffffffffffffffffffffffffffffff021916908373ffffffffffffffffffffffffffffffffffffffff16021790555080600260006101000a81548173ffffffffffffffffffffffffffffffffffffffff021916908373ffffffffffffffffffffffffffffffffffffffff160217905550606460038190555050620002da565b8280546200012490620002a5565b90600052602060002090601f01602090048101928262000148576000855562000194565b82601f106200016357805160ff191683800117855562000194565b8280016001018555821562000194579182015b828111156200019357825182559160200191906001019062000176565b5b509050620001a39190620001a7565b5090565b5b80821115620001c2576000816000905550600101620001a8565b5090565b600080fd5b600073ffffffffffffffffffffffffffffffffffffffff82169050919050565b6000620001f882620001cb565b9050919050565b60006200020c82620001eb565b9050919050565b6200021e81620001ff565b81146200022a57600080fd5b50565b6000815190506200023e8162000213565b92915050565b6000602082840312156200025d576200025c620001c6565b5b60006200026d848285016200022d565b91505092915050565b7f4e487b7100000000000000000000000000000000000000000000000000000000600052602260045260246000fd5b60006002820490506001821680620002be57607f821691505b602082108103620002d457620002d362000276565b5b50919050565b610d9080620002ea6000396000f3fe6080604052600436106100595760003560e01c806306fdde03146100625780632c4e722e1461008d5780636c11bcd3146100b85780638da5cb5b146100e1578063d0febe4c1461010c578063fc0c546a1461011657610060565b3661006057005b005b34801561006e57600080fd5b50610077610141565b604051610084919061078b565b60405180910390f35b34801561009957600080fd5b506100a26101cf565b6040516100af91906107c6565b60405180910390f35b3480156100c457600080fd5b506100df60048036038101906100da9190610812565b6101d5565b005b3480156100ed57600080fd5b506100f6610457565b6040516101039190610880565b60405180910390f35b61011461047d565b005b34801561012257600080fd5b5061012b61066d565b60405161013891906108fa565b60405180910390f35b6000805461014e90610944565b80601f016020809104026020016040519081016040528092919081815260200182805461017a90610944565b80156101c75780601f1061019c576101008083540402835291602001916101c7565b820191906000526020600020905b8154815290600101906020018083116101aa57829003601f168201915b505050505081565b60035481565b80600260009054906101000a900473ffffffffffffffffffffffffffffffffffffffff1673ffffffffffffffffffffffffffffffffffffffff166370a08231336040518263ffffffff1660e01b81526004016102319190610880565b602060405180830381865afa15801561024e573d6000803e3d6000fd5b505050506040513d601f19601f82011682018060405250810190610272919061098a565b10156102b3576040517f08c379a00000000000000000000000000000000000000000000000000000000081526004016102aa90610a03565b60405180910390fd5b6000600354826102c39190610a81565b905080471015610308576040517f08c379a00000000000000000000000000000000000000000000000000000000081526004016102ff90610afe565b60405180910390fd5b600260009054906101000a900473ffffffffffffffffffffffffffffffffffffffff1673ffffffffffffffffffffffffffffffffffffffff166323b872dd3330856040518463ffffffff1660e01b815260040161036793929190610b1e565b6020604051808303816000875af1158015610386573d6000803e3d6000fd5b505050506040513d601f19601f820116820180604052508101906103aa9190610b8d565b503373ffffffffffffffffffffffffffffffffffffffff166108fc829081150290604051600060405180830381858888f193505050501580156103f1573d6000803e3d6000fd5b507fbbcd6525e9abb18370c96747b5bdabcbfb595afb38cb853a1ed34b210ad437c633600260009054906101000a900473ffffffffffffffffffffffffffffffffffffffff168460035460405161044b9493929190610bba565b60405180910390a15050565b600160009054906101000a900473ffffffffffffffffffffffffffffffffffffffff1681565b600061048834610693565b905080600260009054906101000a900473ffffffffffffffffffffffffffffffffffffffff1673ffffffffffffffffffffffffffffffffffffffff166370a08231306040518263ffffffff1660e01b81526004016104e69190610880565b602060405180830381865afa158015610503573d6000803e3d6000fd5b505050506040513d601f19601f82011682018060405250810190610527919061098a565b1015610568576040517f08c379a000000000000000000000000000000000000000000000000000000000815260040161055f90610c4b565b60405180910390fd5b600260009054906101000a900473ffffffffffffffffffffffffffffffffffffffff1673ffffffffffffffffffffffffffffffffffffffff1663a9059cbb33836040518363ffffffff1660e01b81526004016105c5929190610c6b565b6020604051808303816000875af11580156105e4573d6000803e3d6000fd5b505050506040513d601f19601f820116820180604052508101906106089190610b8d565b507facf531ec465d633652ed6f0179042e0f5105d16b2eb45652517eb8f96e3d199733600260009054906101000a900473ffffffffffffffffffffffffffffffffffffffff16836003546040516106629493929190610bba565b60405180910390a150565b600260009054906101000a900473ffffffffffffffffffffffffffffffffffffffff1681565b60008082116106d7576040517f08c379a00000000000000000000000000000000000000000000000000000000081526004016106ce90610ce0565b60405180910390fd5b6000600354836106e79190610d00565b905080915050919050565b600081519050919050565b600082825260208201905092915050565b60005b8381101561072c578082015181840152602081019050610711565b8381111561073b576000848401525b50505050565b6000601f19601f8301169050919050565b600061075d826106f2565b61076781856106fd565b935061077781856020860161070e565b61078081610741565b840191505092915050565b600060208201905081810360008301526107a58184610752565b905092915050565b6000819050919050565b6107c0816107ad565b82525050565b60006020820190506107db60008301846107b7565b92915050565b600080fd5b6107ef816107ad565b81146107fa57600080fd5b50565b60008135905061080c816107e6565b92915050565b600060208284031215610828576108276107e1565b5b6000610836848285016107fd565b91505092915050565b600073ffffffffffffffffffffffffffffffffffffffff82169050919050565b600061086a8261083f565b9050919050565b61087a8161085f565b82525050565b60006020820190506108956000830184610871565b92915050565b6000819050919050565b60006108c06108bb6108b68461083f565b61089b565b61083f565b9050919050565b60006108d2826108a5565b9050919050565b60006108e4826108c7565b9050919050565b6108f4816108d9565b82525050565b600060208201905061090f60008301846108eb565b92915050565b7f4e487b7100000000000000000000000000000000000000000000000000000000600052602260045260246000fd5b6000600282049050600182168061095c57607f821691505b60208210810361096f5761096e610915565b5b50919050565b600081519050610984816107e6565b92915050565b6000602082840312156109a05761099f6107e1565b5b60006109ae84828501610975565b91505092915050565b7f596f752063616e27742073656c6c2074686520616d6f756e7400000000000000600082015250565b60006109ed6019836106fd565b91506109f8826109b7565b602082019050919050565b60006020820190508181036000830152610a1c816109e0565b9050919050565b7f4e487b7100000000000000000000000000000000000000000000000000000000600052601260045260246000fd5b7f4e487b7100000000000000000000000000000000000000000000000000000000600052601160045260246000fd5b6000610a8c826107ad565b9150610a97836107ad565b925082610aa757610aa6610a23565b5b828204905092915050565b7f4e6f7420656e6f75676820746f6b656e73000000000000000000000000000000600082015250565b6000610ae86011836106fd565b9150610af382610ab2565b602082019050919050565b60006020820190508181036000830152610b1781610adb565b9050919050565b6000606082019050610b336000830186610871565b610b406020830185610871565b610b4d60408301846107b7565b949350505050565b60008115159050919050565b610b6a81610b55565b8114610b7557600080fd5b50565b600081519050610b8781610b61565b92915050565b600060208284031215610ba357610ba26107e1565b5b6000610bb184828501610b78565b91505092915050565b6000608082019050610bcf6000830187610871565b610bdc6020830186610871565b610be960408301856107b7565b610bf660608301846107b7565b95945050505050565b7f596f752063616e277420627579206d6f726520746f6b656e7300000000000000600082015250565b6000610c356019836106fd565b9150610c4082610bff565b602082019050919050565b60006020820190508181036000830152610c6481610c28565b9050919050565b6000604082019050610c806000830185610871565b610c8d60208301846107b7565b9392505050565b7f596f752063616e206e6f74206275792077697468203000000000000000000000600082015250565b6000610cca6016836106fd565b9150610cd582610c94565b602082019050919050565b60006020820190508181036000830152610cf981610cbd565b9050919050565b6000610d0b826107ad565b9150610d16836107ad565b9250817fffffffffffffffffffffffffffffffffffffffffffffffffffffffffffffffff0483118215151615610d4f57610d4e610a52565b5b82820290509291505056fea264697066735822122073841ea7557d583cf2fd016d1cf6a6bdc77e032e46e46700af9d7bc4e5a2e5c064736f6c634300080d0033",
  "immutableReferences": {},
  "source": "// SPDX-License-Identifier: MIT\npragma solidity >=0.4.22 <0.9.0;\n\nimport \"./Token.sol\";\n\ncontract EthSwap {\n  string public name = \"EthSwap Instant Exchange\";\n  address public owner;\n  // create a variable that represents the smart contract\n  Token public token;\n  // Redemtion rate = #amount of tokens they receive for 1 ether\n  uint public rate;\n\n\n  // we pass the token when we delpoy to the networks - token code and address\n  // we need to update the deploy contracts for this constructor\n  constructor(Token _token) {\n    owner = msg.sender;\n    token = _token;\n    rate = 100;\n  }\n\n  receive() external payable {}\n\n  fallback() external payable {}\n\n  event BuyToken (address account, address token, uint amount, uint rate);\n  event SellToken(address account, address token, uint amount, uint rate);\n\n  // calculate ratio given by the amount of ether\n  function ratioAmount(uint _amount) private view returns(uint) {\n    require(_amount > 0, \"You can not buy with 0\");\n    uint tokenAmount;\n    tokenAmount = _amount * rate;\n    return tokenAmount;\n  }\n\n  function buyTokens() public payable {\n    uint amount = ratioAmount((msg.value));    \n    // Require that EthSwap has enough tokens\n    require(token.balanceOf(address(this)) >=  amount , \"You can't buy more tokens\");\n    token.transfer(msg.sender, amount);\n    emit BuyToken(msg.sender, address(token), amount, rate);\n  }\n\n  function sellTokens(uint _amount) public {\n    // User can't sell more tokens that they have\n    require(token.balanceOf(msg.sender) >= _amount, \"You can't sell the amount\");\n\n    // calculate the ether amount to redeem\n    uint etherAmount = _amount / rate;\n\n    // Require that EthSwap has enough tokens\n    require((address(this).balance) >=  etherAmount , \"Not enough tokens\");\n\n    // step give back DCT tokens\n    token.transferFrom(msg.sender, address(this), _amount);\n    // step give back ether\n    payable(msg.sender).transfer(etherAmount);\n\n    emit SellToken(msg.sender, address(token), _amount, rate);\n  }\n  \n}\n",
  "sourcePath": "/Users/danielancuta/Development/blockchain/truffle-react-eth-swap-app/src/contracts/EthSwap.sol",
  "compiler": {
    "name": "solc",
    "version": "0.8.13+commit.abaa5c0e.Emscripten.clang"
  },
  "schemaVersion": "3.4.7",
  "updatedAt": "2022-05-13T15:11:11.549Z",
  "networkType": "ethereum",
  "devdoc": {
    "kind": "dev",
    "methods": {},
    "version": 1
  },
  "userdoc": {
    "kind": "user",
    "methods": {},
    "version": 1
  }
}